:100000000C9434000C9446000C9446000C9446006A
:100010000C9446000C9446000C9446000C94460048
:100020000C9446000C9446000C9446000C94460038
:100030000C9446000C9446000C9446000C94460028
:100040000C9446000C9446000C9446000C94460018
:100050000C9446000C9446000C9446000C94460008
:100060000C9446000C94460011241FBECFEFD8E03C
:10007000DEBFCDBF21E0A0E0B1E001C01D92A23003
:10008000B207E1F70E9450000C9463000C9400004A
:100090005098589A5198599A0895219A29980895F4
:1000A0000E9448000E944D0089B181708093010137
:1000B000811101C0299889B182708093000182303A
:0A00C00099F7299AF1CFF894FFCFC9
:00000001FF
