:100000000C9434000C943E000C943E000C943E0082
:100010000C943E000C943E000C943E000C943E0068
:100020000C943E000C943E000C943E000C943E0058
:100030000C943E000C943E000C943E000C943E0048
:100040000C943E000C943E000C943E000C943E0038
:100050000C943E000C943E000C943E000C943E0028
:100060000C943E000C943E0011241FBECFEFD8E04C
:10007000DEBFCDBF0E9448000C9452000C940000DB
:100080005098589A5198599A0895219A2998089504
:100090000E9440000E944500489902C02998FCCF68
:0800A000299AFACFF894FFCF72
:00000001FF
